:100000000C9435000C945D000C945D000C945D0024
:100010000C945D000C945D000C945D000C945D00EC
:100020000C945D000C945D000C945D000C945D00DC
:100030000C945D000C945D000C945D000C945D00CC
:100040000C9477030C945D000C9449030C941F03EB
:100050000C945D000C945D000C945D000C945D00AC
:100060000C945D000C945D009C0311241FBECFEF27
:10007000D8E0DEBFCDBF12E0A0E0B1E0EAE1F7E1F9
:1000800002C005900D92AA3FB107D9F724E0AAEF6C
:10009000B2E001C01D92A232B207E1F710E0C5E361
:1000A000D0E004C02197FE010E94A008C433D1070C
:1000B000C9F70E9439040C948B0B0C940000DC01EE
:1000C0002D91211101C00895909187039F5F9F7327
:1000D000809186039817E1F3E92FF0E0EA5BFC4F8B
:1000E0002083909387039091C10090629093C10008
:1000F000E7CF8093BB0084E88093BC008091BC0074
:1001000087FFFCCF9091B900987F983129F0983201
:1001100019F081E0903409F480E0089584EA809336
:10012000BC008091BC0087FFFCCF08950E948E0028
:1001300081E20E947900882321F084E98093BC0049
:100140000895E2E0F4E090E080E044EC54E840936D
:10015000BC002091BC0027FFFCCF2091BB008F305A
:10016000910591F04093BC003091BC0037FFFCCF6B
:100170003091BB0023273227232721933193019607
:100180008031910521F7D9CF5093BC003091BC004C
:1001900037FFFCCFEDCF0E949600E4EEF3E0209114
:1001A000040480910504382F337082899389289F35
:1001B000A001299F500D389F500D112486859785E9
:1001C000840F951F0895CF93DF930E948E0080E2E5
:1001D0000E947900C4EED3E0882339F084E980934B
:1001E000BC0081E0DF91CF9108958FA50E94790036
:1001F000882329F084E98093BC0082E0F3CF8EA5A8
:100200000E947900882329F084E98093BC0083E070
:10021000E9CF229693E0C03FD90739F794E990934C
:10022000BC00E0CFCF93DF93EC010E949600CF3F5C
:10023000DC07B9F0C031D10511F4CFE0D0E0CF70C8
:1002400080911804807FC82BC09318040E94E3009B
:100250000E949600809118048F7090E0DF91CF91FA
:100260000895C0E0ECCFCF93DF932091F403309159
:10027000F503821793070CF49C01C091F203D0910F
:10028000F303C217D3070CF4E9010E949600809192
:10029000F2039091F3039E01281B390BC901609171
:1002A000F6037091F7030E94780860931404872F77
:1002B0008370709115047C7F782B7068709315049F
:1002C0000E94E3008091170486FD05C00E949600FD
:1002D00080910304F9CF0E949600809115048F77D6
:1002E000809315040E94E3000E949600809103040D
:1002F00086FDFACFDF91CF910C94CB0087B18F7C34
:1003000087B988B1806388B9E9EBF0E080818C7FA0
:10031000808388E48093B80008950E948E0088E767
:100320000E94790080E40C947900CF93C82F0E943A
:100330008E0088E70E94790080E00E9479008C2F6F
:100340000E94790084E98093BC00CF910895CF93F7
:10035000C62F8770806B0E9495018C2F8F700E9432
:1003600095018C2F82958F708061CF910C949501AF
:10037000CF9360E087E00E94A7010E948D01C4E84E
:1003800080E00E947900C150D9F784E98093BC00D5
:10039000CF910895AF92BF92CF92DF92EF92FF92EA
:1003A0000F931F93CF93DF93D82E7B0114E086E049
:1003B000C82E04E9F70121917F01222379F11C372E
:1003C00069F1E5E1F1E090E080E0308123131EC0A7
:1003D000C89EE001C99ED00D1124CA5EDE4F612F78
:1003E0008D2D0E94A7010E948D015E01F5E0AF0EE8
:1003F000B11C89910E947900CA15DB05D1F780E014
:100400000E9479000093BC001A5FD4CF0196369603
:1004100080349105D1F6C6E1D1E0E1CFDF91CF91F3
:100420001F910F91FF90EF90DF90CF90BF90AF9012
:100430000895FC01208181E090E001C0880F6A9559
:10044000EAF7982F9095922390839181892B81834D
:100450000895EF92FF920F931F93FC01A281B38145
:100460003C91248181E090E001C0880F2A95EAF751
:10047000382321E009F420E04FB7F8948091FA0284
:100480009091FB02A091FC02B091FD024FBF46810A
:10049000421721F087839087A187B28726834781FF
:1004A0005085618572857C018D01E41AF50A060B81
:1004B000170BB801A701433351056105710568F0B9
:1004C0004581421751F02583311123C083879487DA
:1004D000A587B68721E02787108A2785222351F137
:1004E0002089211127C04385548565857685841B25
:1004F000950BA60BB70B893B9B40A105B105D0F02E
:1005000081E0808B82E090E01F910F91FF90EF904F
:1005100008951786208921110DC04385548565856E
:100520007685841B950BA60BB70B843C9940A105DF
:10053000B10518F090E080E0E7CF81E090E0E4CFF3
:10054000CF93DF93EC016C81888199810E9419021D
:10055000EA81FB8180819C8121E030E001C0220F93
:100560009A95EAF7822391E009F490E09D83DF9168
:10057000CF9108950E949600ECE1F4E081818068BB
:1005800081830E94E3002FEF89E698E121508040AB
:100590009040E1F700C000000E949600E2E1F4E024
:1005A000808181608F7B80838181806481830E94D0
:1005B000E3002FEF8EE595E0215080409040E1F779
:1005C00000C000000895CF93C82F0E94960080912C
:1005D0001304C0FB81F98160809313040E94E3003F
:1005E0008091170486FD10C00E949600809103043C
:1005F00086FD0AC02FEF83EF91E0215080409040AC
:10060000E1F700C00000F0CF0E949600C091030403
:10061000C072809113048E7F809313040E94E300C4
:100620000E9496008091030486FDFACFC11103C099
:10063000CF910C94CB0090E080E0CF9108951F9271
:100640000F920FB60F9211248F939F93EF93FF9306
:1006500090918703809186039817A9F0E091860313
:10066000EF5FEF73E0938603F0E0EA5BFC4F80817D
:100670008093C600FF91EF919F918F910F900FBED5
:100680000F901F9018958091C1008F7D8093C100BD
:10069000F1CF1F920F920FB60F9211242F938F93C9
:1006A0009F93EF93FF938091C0009091C600E091DB
:1006B0004503EF5FEF73209144032E17B1F08C7167
:1006C000E0934503F0E0EC5FFC4F908390910303CF
:1006D000892B80930303FF91EF919F918F912F912D
:1006E0000F900FBE0F901F90189582E0EFCF1F92D2
:1006F0000F920FB60F9211248F939F93AF93BF93D6
:100700008091FA029091FB02A091FC02B091FD024F
:100710000196A11DB11D8093FA029093FB02A09354
:10072000FC02B093FD02BF91AF919F918F910F900A
:100730000FBE0F901F901895E3EDF3E04AE250E0F2
:100740005183408329E230E03383228385E0848330
:1007500081E085838683178210861186128617862C
:10076000108A1386148615861686E2ECF3E0518310
:1007700040833383228396E0948385838683178224
:100780001086118612861786108A1386148615869F
:100790001686E1EBF3E0518340833383228397E0B5
:1007A0009483858386831782108611861286178626
:1007B000108A1386148615861686E0EAF3E064E252
:1007C00070E07183608363E270E0738362831482FC
:1007D0008583868317821086118612861786108A73
:1007E0001386148615861686E8E8F3E05183408365
:1007F0003383228392E09483568345833087278313
:1008000093E0918727E230E03387228726E230E0C9
:100810003587248786871786108A118A128A138A59
:10082000148A158A168A178AE4EEF3E084E090E0D1
:10083000918380839383828385E090E09583848392
:10084000178216821186108681E090E09387828756
:1008500015861486958B848B88E190E0978B868B28
:100860008FE090E0918F808F938F828F158E148E02
:100870000895CF93DF93CDB7DEB7AA970FB6F8945C
:10088000DEBF0FBECDBF1092870310928603109279
:100890004503109244031092C50087E68093C4007C
:1008A00088E98093C10086E08093C2000E947E01A7
:1008B0000FEF11EE24E0015010402040E1F700C09E
:1008C00000008EEA0E94950180E20E94950180E07E
:1008D0000E94950180EB0E94950188EC0E94950191
:1008E00080E00E94950180E10E94950180E40E94D1
:1008F000950181E80E9495018FE70E94950181EAA8
:100900000E94950186EA0E94950188EA0E9495015D
:100910008FE30E94950184EA0E94950183ED0E9475
:10092000950180E00E94950185ED0E94950180EF80
:100930000E94950189ED0E94950182E20E94950135
:100940008AED0E94950182E10E9495018BED0E9443
:10095000950180E20E9495018DE80E94950184E155
:100960000E9495018FEA0E94950110E0E4E9FE2EB5
:1009700060E0812F0E94A7010E948D0104E880E0C1
:100980000E9479000150D9F7F092BC001F5F183027
:1009900079F785B58B7F85BD85B5836085BD8091F1
:1009A0006E00816080936E0083ED93E00E94A00250
:1009B00082EC93E00E94A00281EB93E00E94A002EF
:1009C00080EA93E00E94A00260918C0380918803EA
:1009D000909189030E9419026091910380918D0387
:1009E00090918E030E941902609196038091920368
:1009F000909193030E941902E0918A03F0918B0376
:100A0000808190918C0321E030E001C0220F9A9503
:100A1000EAF7822391E009F490E0909397037894A9
:100A20002AB181E090E0AC010090E40302C0440FE1
:100A3000551F0A94E2F7242B2AB947B19C01009074
:100A4000E60302C0220F331F0A94E2F7342F322B41
:100A500037B93BB1AC010090E40302C0440F551F0D
:100A60000A94E2F7409543234BB938B120952323EC
:100A700028B9EFE9FFE03197F1F700C000002BB192
:100A80000090E40302C0880F991F0A94E2F7822BBA
:100A90008BB98FE99FE00197F1F700C000000E9439
:100AA0007E010E94BA020E9496004091F00380915C
:100AB000EE039091EF032091EC033091ED03213090
:100AC0003105A1F022303105F1F06EE272E221151C
:100AD000310571F081309105F9F08230910509F40A
:100AE00044C10097F9F464E170E018C060EB7DE167
:100AF0007093F3036093F20360E37AE27093F5037B
:100B00006093F403E7CF60EB7DE17093F3036093B0
:100B1000F20368E273E2F2CF6AE070E07093F703E9
:100B20006093F60383708295807F322F3295330F66
:100B3000330F307C2091170440FB23F9909113046C
:100B40009E7F92604091F80340FB92F94091FA0336
:100B5000409319044091FC035091FE035295507F3D
:100B60004F70452B40931A042F7B4091000440FBAB
:100B700022F92F7720612093170420911D042F7BE9
:100B800020931D04832B8093180420911B04977DD0
:100B90009068909313042E7020931B0410921604F7
:100BA0000E94E3008CEC99E20E9433018AE090E01D
:100BB0000E9412010E94960080911D04806480931F
:100BC0001D0480911604807C809316048091130488
:100BD0008F7B8093130480911204816080648093E2
:100BE00012040E94E300EFE3FFE13197F1F700C048
:100BF00000000E94BA0254E6652E712C6AE0862E2F
:100C0000912C8E010F5F1F4F7801CC24C394D12CFF
:100C10005E0119E1A10EB11C83ED93E00E9429024F
:100C20008130910509F0A4C08091010390910203E5
:100C3000009711F00E94330182EC93E00E94290298
:100C40008130910509F0DCC080910001882399F082
:100C50000E9496001091130416FB112710F981E0F1
:100C600018270E9496008091130410FB86F9809348
:100C700013040E94E30081EB93E00E942902019794
:100C800071F480E00E94E302892B49F48091F4031F
:100C90009091F5030E94330180E00E94E30280EA14
:100CA00093E00E942902019771F481E00E94E3021F
:100CB000892B49F48091F2039091F3030E94330150
:100CC00081E00E94E3022FB7F8948091FA0290919C
:100CD000FB02A091FC02B091FD022FBFE0919403B2
:100CE000F0919503208130919603A60101C0440F35
:100CF0003A95EAF7242309F0B2C040919803509145
:100D0000990360919A0370919B038C019D01041BD0
:100D1000150B260B370BB901A8014B3F5105610597
:100D2000710508F49CC08093980390939903A09355
:100D30009A03B0939B038A569F4FAF4FBF4F809348
:100D40009C0390939D03A0939E03B0939F03809177
:100D5000FF0290910003892B09F038C1D092000363
:100D6000C092FF028FEA92E0FCC065E070E0D6CE50
:100D7000029709F061CF0E94CB0090930203809309
:100D80000103B3010E9478089B01B4010E94780816
:100D90007F936F933F932F9325E932E03F932F93F7
:100DA0001F9258E15F93FF92EF920E94A6080E9463
:100DB000B801B70187E00E94CA018FEF93EDE0E32D
:100DC00081509040E040E1F700C00000FFEF03EDEC
:100DD00010E3F15000401040E1F700C000002FEF99
:100DE00033ED40E3215030404040E1F700C00000C7
:100DF0000E94B8010FB6F894DEBF0FBECDBF1CCF66
:100E0000029709F038CF80910001882311F10E94E8
:100E1000960080911D04806480931D0480911604C7
:100E2000807C80931604809113048F7B809313043D
:100E30008091120481608064809312040E94E30018
:100E4000EFE3FFE13197F1F700C0000010920001DD
:100E500012CF0E94BA0281E0809300010CCFE09192
:100E60008A03F0918B039081E0918F03F0919003BE
:100E7000808120918C03A60102C0440F551F2A9542
:100E8000E2F7942321E030E011F430E020E0220F7B
:100E9000331F90919103A60101C0440F9A95EAF780
:100EA0008423E1E009F4E0E0E22B0E2E000CFF0BBE
:100EB000EF5EFE4F9081E091FE0254E0E59FF0016D
:100EC0001124EF5FFE4FE90FF11D80819093FE0228
:100ED0008130F9F08F3F09F046C08091FF02909178
:100EE0000003892B99F10E94CB002091F6033091E9
:100EF000F703820F931F2091F4033091F503281715
:100F0000390724F48091F2039091F3030E94330196
:100F100026C08091FF0290910003892B09F44AC0FA
:100F20000E94CB002091F6033091F703821B930BB4
:100F30002091F2033091F3038217930724F48091F8
:100F4000F4039091F5030E9433013DC00E94960086
:100F5000809118048F7090E001960E9412018AEA35
:100F600092E00E945F000E94CB008C010E949600DC
:100F7000509002040E949600809118048F70482EB1
:100F80000E94960080910001811125C060E00E94BE
:100F9000A7010E948D0114E880E00E9479001150A1
:100FA000D9F784E98093BC0067EB72E080E00E948F
:100FB000CA0132CE0E949600809118048F70815031
:100FC000990B0E94120189EA92E0CBCF10920003A4
:100FD0001092FF02C7CE30901304C801B3010E94E3
:100FE00078089B01B4010E9478087F936F933F9328
:100FF0002F938EE992E09F938F931F9280E18F93BE
:10100000BF92AF920E94A6081F925F921F924F92CA
:101010000DEC12E01F930F931F9284E18F93FF92C8
:10102000EF920E94A6080FB6F894DEBF0FBECDBFA8
:101030006FED72E036FE11C060E080E00E94A70113
:101040000E948D0114E880E00E9479001150D9F7C8
:1010500084E98093BC0060EF72E080E00E94CA01E6
:10106000BAA6A9A684E0582E96E0292EE9A5FAA5ED
:101070002191FAA7E9A72223C1F1F9E75F16A9F1A7
:10108000E5E1F1E090E080E03081231326C0289E66
:101090008001299E100D11240A5E1E4F652D83E0EC
:1010A0000E94A7010E948D01412CF80131908F010F
:1010B000832D0E94790040FC03C0832D0E9479009B
:1010C0004394F5E04F12F1CF80E00E94790004E9EB
:1010D0000093BC0019E0510EC9CF019636968034BA
:1010E000910591F606E111E0D9CFB70185E05FCF18
:1010F00097FB072E16F4009407D077FD09D00E94C5
:101100008C0807FC05D03EF4909581959F4F08957B
:10111000709561957F4F0895AA1BBB1B51E107C0D5
:10112000AA1FBB1FA617B70710F0A61BB70B881F77
:10113000991F5A95A9F780959095BC01CD01089506
:10114000EE0FFF1F0590F491E02D0994AEE0B0E0A2
:10115000ECEAF8E00C94620B0D891E898F89988D5A
:1011600026E02C831A83098397FF02C080E090E871
:1011700001979E838D83AE01455E5F4F698D7A8DA9
:10118000CE0101960E94D6084D815E8157FD0AC0AE
:101190002F813885421753070CF49A01020F131F51
:1011A000F80110822E96E4E00C947E0BABE0B0E0E8
:1011B000ECEDF8E00C94540B7C013B018A01FC013E
:1011C00017821682838181FFC8C1CE0101965C011E
:1011D000F7019381F30193FD859193FF81913F0185
:1011E000882309F453C1853239F493FD859193FF27
:1011F00081913F01853229F4B70190E00E94C60A2F
:10120000E7CF912C212C312CFFE1F31538F08B32F4
:1012100011F190F4803209F1833229F137FC3CC09E
:1012200020ED280F2A3050F536FE20C08AE0989E27
:10123000200D1124922E06C08D3291F0803371F76B
:10124000689430F8F30193FD859193FF81913F01FC
:101250008111DACF21C0689431F8689432F8F2CF66
:10126000689433F8EFCF689434F8ECCFEAE02E9E20
:10127000200D1124222E689435F8E4CF8E3229F403
:1012800036FC04C1689436F8DDCF8C3619F46894C6
:1012900037F8D8CF8836B1F2982F9F7D9554933088
:1012A000E0F08336A1F18337C1F1833509F063C0E3
:1012B0002801F2E04F0E511CF801C080D180692D49
:1012C00070E036FC02C06FEF7FEFC6010E94B00AEB
:1012D0004C01689437F882010AC00C5F1F4FFFE38E
:1012E000F98388248394912C6501E89437F833FEC0
:1012F0002DC0522C8114910471F5552009F468CF4A
:10130000B70180E290E00E94C60A5A94F6CFF80135
:10131000808189830E5F1F4FE4CF2801F2E04F0EDA
:10132000511CF801C080D180692D70E036FC02C0EC
:101330006FEF7FEFC6010E94BB0A4C018201D5CF3F
:10134000B70180E290E00E94C60A2A94281419048A
:1013500009F0B0F7CECFF60137FC859137FE8191C9
:101360006F01B70190E00E94C60A51105A94F1E053
:101370008F1A9108BFCF843619F0893609F077C0EB
:10138000F80137FE6BC060817181828193810C5FAF
:101390001F4FF32DFF763F2E97FF09C09095809544
:1013A000709561957F4F8F4F9F4F689437F82AE073
:1013B00030E0A5010E94F60AC82ECA188C2C432CD6
:1013C00036FE0CC0E89440F8C91440F434FE05C061
:1013D00032FC03C0F32DFE7E4F2E892C44FE95C0B7
:1013E000FE01EC0DF11D8081803309F087C0242DB2
:1013F000297E422E842D8870582E43FC95C040FED5
:101400008FC09C2C821418F42C0C922C981844FE3B
:1014100091C0B70180E390E00E94C60A42FE09C075
:1014200088E790E041FE02C088E590E0B7010E94A5
:10143000C60AC91408F48AC0CA94D12C9FEFC91AED
:10144000D90ACA0CDB1CF60182916F01B70190E04A
:101450000E94C60AAC14BD04B1F74FCF6081718100
:10146000072E000C880B990B0E5F1F4F92CFD32CC9
:10147000E894D4F82AE030E0853739F1232D297F2C
:10148000D22E8F3601F148F48835A9F0F701868114
:1014900097812B96E2E10C94700B803749F08837E6
:1014A000A9F7D4FE02C06894D2F820E130E00DC064
:1014B0006894D4F8F6CF34FE03C0822F8660D82E0D
:1014C00020E132E002C028E030E0F801D7FE0FC092
:1014D00060817181828193810C5F1F4FA5010E9401
:1014E000F60AC82ECA183D2CE89437F867CF6081F9
:1014F000718190E080E00E5F1F4FF0CF42FC02C090
:10150000839478CF8394839475CF842D867809F45F
:1015100071CFF6CFB70180E290E00E94C60A8394B3
:101520008214C0F3512C73CF522C5818821408F433
:101530006ECFF8CF842D867809F47BCF8BE241FE05
:1015400080E247FC8DE2B70190E071CFB70180E304
:1015500090E00E94C60A9A946CCF8FEF9FEF99CFCC
:10156000FC010590615070400110D8F7809590956E
:101570008E0F9F1F0895FC01615070400190011073
:10158000D8F7809590958E0F9F1F08950F931F9306
:10159000CF93DF93182F092FEB018B8181FD09C0B9
:1015A0001FEF0FEF812F902FDF91CF911F910F91A0
:1015B000089582FF14C02E813F818C819D81281760
:1015C00039073CF4E881F981CF010196998388833A
:1015D00010838E819F8101969F838E83E3CFE88560
:1015E000F985812F0995892BA1F3DACFFA01AA2772
:1015F000283051F1203181F1E8946F936E7F6E5F56
:101600007F4F8F4F9F4FAF4FB1E03ED0B4E03CD003
:10161000670F781F891F9A1FA11D680F791F8A1FE6
:10162000911DA11D6A0F711D811D911DA11D20D04D
:1016300009F468943F912AE0269F11243019305D07
:101640003193DEF6CF010895462F4770405D4193F8
:10165000B3E00FD0C9F7F6CF462F4F70405D4A3345
:1016600018F0495D31FD4052419302D0A9F7EACF0D
:10167000B4E0A6959795879577956795BA95C9F73C
:1016800000976105710508959B01AC010A2E06942F
:101690005795479537952795BA95C9F7620F731FE8
:1016A000841F951FA01D08952F923F924F925F9225
:1016B0006F927F928F929F92AF92BF92CF92DF9262
:1016C000EF92FF920F931F93CF93DF93CDB7DEB7C7
:1016D000CA1BDB0B0FB6F894DEBF0FBECDBF09945B
:1016E0002A88398848885F846E847D848C849B84B2
:1016F000AA84B984C884DF80EE80FD800C811B81C0
:10170000AA81B981CE0FD11D0FB6F894DEBF0FBEEE
:0A171000CDBFED010895F894FFCF5E
:10171A0001000100FFFF00010000FF00010100FFBE
:10172A0000000103022000000000002E0000001843
:10173A0018303E5149453E3100427F4000324261F5
:10174A00514946332141454B31341814127F103523
:10175A002745454539363C4A49493037017109051B
:10176A000338364949493639064949291E417E090D
:10177A0009097E427F49494936433E414141224453
:10178A007F4141221C457F49494941467F09090950
:10179A0001473E4149493A487F0808087F490041C4
:1017AA007F41004A2040413F014B7F081422414CAF
:1017BA007F404040404D7F020C027F4E7F061860FA
:1017CA007F4F3E4141413E507F09090906513E4142
:1017DA0051215E527F0919294653264949493254F3
:1017EA0001017F0101553F4040403F5607384038CC
:1017FA0007577F2018207F5863140814635903047D
:10180A007804035A6151494543612054545478621B
:10181A007F48444438633844444420643844444844
:10182A007F65385454541866087E090102670C52C1
:10183A0052523E687F080404786900447D40006A79
:10184A002040443D006B7F102844006C00417F40DB
:10185A00006D7C041804786E7C080404786F3844A0
:10186A00444438707C1414140871081414187C72D7
:10187A007C0804040873485454542074043F4440B8
:10188A0020753C4040207C761C2040201C773C4040
:10189A0030403C784428102844790C5050503C7A07
:1018AA004464544C444641564F52495445202533CA
:1018BA00642E2531644D487A004343570D0A00438C
:1018CA004C49434B0D0A00464D20526164696F2012
:1018DA00697320706F776572206F666600566F6C49
:1018EA003A2532642020525353493A25326400463D
:1018FA004D20526164696F206973204D75746500CB
:0A190A00464D20526164696F000031
:00000001FF
